:040000005DEF00F0C0
:100008002682FACF01F0FBCF02F0E9CF03F0EACF66
:1000180004F0E1CF05F0E2CF06F0D9CF07F0DACF50
:1000280008F0F3CF09F0F4CF0AF0F6CF0BF0F7CFD2
:100038000CF0F8CF0DF0F5CF0EF026C00FF027C06A
:1000480010F028C011F029C012F0F2A40CD0234AF5
:10005800242A8CB802D08C8801D08C98FF0ED76ED9
:10006800370ED66EF29412C029F011C028F010C0D5
:1000780027F00FC026F00EC0F5FF0DC0F8FF0CC02A
:10008800F7FF0BC0F6FF0AC0F4FF09C0F3FF08C072
:10009800DAFF07C0D9FF06C0E2FF05C0E1FF04C0D0
:1000A800EAFF03C0E9FF02C0FBFF01C0FAFF269286
:0600B80011005CEF08F0EE
:1010000000640000206E010EF66E0900F550235CAE
:101010000900F5502458D8B021D0000E166E640E89
:10102000156E010EF66E0900F5CF13F00A00F5CF2C
:1010300014F033EC08F013C01AF014C01BF020C0F9
:101040001CF01D6A86EC08F01A50235C1B502458D3
:10105000D8B002D08C8212008C921200000E246E46
:10106000000E236E1200000E186E000E176E155043
:101070001610D8B41CD0010E196E04D0D8901536B5
:101080001636192A16AEFAD7D890173618361550D4
:10109000135C16501458D8A005D01550135E165086
:1010A000145A1780D89016321532192EEDD717C062
:1010B00013F018C014F012003E0EF66E110EF76E0B
:1010C000000EF86E0900F5CF25F0246A236A226A23
:1010D000216A26902692000EF86E100EF76E00011F
:1010E00099EF08F0D3508F0B7009D36E93688A681C
:1010F000000E0F01396FC00E956E000E8C6E000E43
:101100003B6F800ED56EE00EF26E12001A501C027C
:10111000F3CF1EF0F4CF1FF01A501D02F3501F261C
:101120001B501C02F3501F261EC01AF01FC01BF0DC
:0F113000120072EC08F00A0E02EC08F0FCD73245
:020000040020DA
:08000000FFFFFFFFFFFFFFFF00
:020000040030CA
:0E000000FF691F3CFFBF85FF0FC00FE00F40E0
:00000001FF
