:04000000D0EF00F04D
:100008005282FACF36F0FBCF37F0E9CF38F0EACF9B
:1000180039F0E1CF3AF0E2CF3BF0D9CF3CF0DACF7C
:100028003DF0F3CF3EF0F4CF3FF0F6CF40F0F7CFFE
:1000380041F0F8CF42F0F5CF43F052C044F053C03E
:1000480045F054C046F055C047F0F2A45AD0F29497
:100058004C50D8B450D0640E4A604DD04B504A5CD6
:10006800D8B044D0250E1E6E780E1F6E470E206E37
:10007800000E0F6E000E106E3F0E116E50C009F08C
:1000880051C00AF0C4EC0BF009C00CF00AC00DF026
:100098000BC00EF0DCEC09F00CC01BF00DC01CF01E
:1000A8000EC01DF00EEC08F01BC027F01CC028F095
:1000B8001DC029F062EC09F027C0D6FF28C0D7FF81
:1000C8004F504A5CD8B002D08A8A01D08A9A4D50E3
:1000D8004A5CD8B002D08A8801D08A984E504A5CCF
:1000E800D8B002D08A8605D08A9603D08A968A9894
:1000F8008A9A4A2A06D0000E4A6E000ED76E000E63
:10010800D66EA4AA21D071B21CD071B417D00A0E31
:10011800000179610CD07951010D7A0EF324D96E62
:10012800000EF420DA6E74CFDFFF792B0CD0000EAE
:10013800796F74CF7AF0010E796F05D0719E718E48
:1001480002D071987188A49A9EBC9E9C47C055F0B5
:1001580046C054F045C053F044C052F043C0F5FFC8
:1001680042C0F8FF41C0F7FF40C0F6FF3FC0F4FFB0
:100178003EC0F3FF3DC0DAFF3CC0D9FF3BC0E2FF01
:100188003AC0E1FF39C0EAFF38C0E9FF37C0FBFFDA
:0C01980036C0FAFF52921100D6EF0BF0B7
:1010000000286E756C6C2900636F6C6F7220002570
:1010100073200A0D00537570657200001DC021F029
:10102000226A236A1C34213601E322802150266E75
:1010300020C021F0226A236A1F34213601E3228076
:101040002150256E2650D8B40BD02550265CD8B040
:101050000ED0265000082524216E180E216407D0DA
:101060001EC01BF01FC01CF020C01DF01200255038
:10107000D8B40BD02650255CD8B00ED0255000082F
:101080002624216E180E216407D01BC01BF01CC043
:101090001CF01DC01DF01200060E246E1DBE248E15
:1010A00020BE248C1C8EFF0E1B16FF0E1C16000E7D
:1010B0001D161F8EFF0E1E16FF0E1F16000E201689
:1010C0002550265CD8B01BD0D8901E361F3620364F
:1010D000250626502518D8B40DD0240624C021F0AA
:1010E000070E2116D8B406D0EFD7D8901D321C3287
:1010F0001B32262A25502618D8B41FD0F6D72650E2
:10110000255CD8B01AD0D8901B361C361D36260662
:1011100026502518D8B40DD0240624C021F0070E7F
:101120002116D8B406D0EFD7D89020321F321E3205
:10113000252A25502618D8A4F7D724AE0CD0FF0EA8
:101140001B1AFF0E1C1AFF0E1D1A010E1B26000E85
:101150001C22000E1D2224AC0CD0FF0E1E1AFF0E06
:101160001F1AFF0E201A010E1E26000E1F22000E4F
:101170002022000E246E1B501E261C501F221D50C4
:10118000202220AE0ED0FF0E1E1AFF0E1F1AFF0ED9
:10119000201A010E1E26000E1F22000E2022010E14
:1011A000246E1EC001F01FC002F020C003F026C054
:1011B00004F024C005F0C9EC0AF001C01BF002C025
:1011C0001CF003C01DF01200000E0001726F6DD004
:1011D0007251010DF3506625D96EF4506721DA6E15
:1011E000DF506A6F68C0F6FF69C0F7FFF86A080051
:1011F000F5506A19D8A458D072C071F072516A6F54
:101200006B6B6A1F6B1F6A4B6B2B71516C6F6D6B35
:101210006A516C276B516D2368C06EF069C06FF026
:101220006C516E276D516F236EC0F6FF6FC0F7FFD4
:10123000F86A0800F5500009D8A402D0010E120087
:1012400071C060F0616B000E636F0A0E626F61EC3B
:101250000BF0000160516625D96E61516721DA6E8D
:10126000DF506A6F72516B6F6C6B6B1F6C1F6B4B37
:101270006C2B71516D6F6E6B6B516D276C516E23C2
:1012800068C06FF069C070F06D516F276E517023A8
:101290006FC0F6FF70C0F7FFF86A0800F5506A19D2
:1012A000D8A402D0712BAAD7722B7251010DF35022
:1012B0006625D96EF4506721DA6EDF50D8A488D73E
:1012C000000E120029C02BF02C6A2D6A28342B3610
:1012D00001E32C802B50356E3550D8A409D0000E78
:1012E000276E000E286E000E296E000E2A6E120068
:1012F000170E2B6E27C02CF028C02DF029C02EF021
:101300002B282F6E04D0D8902E322D322C322F2E37
:10131000FAD72C50306E288EFF0E2716FF0E281697
:10132000000E29162750316E2850326E2950336E28
:10133000346A8E0E355E35AE16D03550800A8F0F6A
:10134000D8B009D0000E276E000E286E000E296E50
:10135000000E2A6E1200D8903432333232323132DB
:10136000353EF9D715D0170E35640FD0000E276E15
:10137000000E286E000E296E000E2A6E1200D89004
:10138000313632363336343635063550D8A4F7D7B1
:101390003050D8B408D0341E331E321E316C000ECB
:1013A00032223322342231C027F032C028F033C039
:1013B00029F034C02AF012000EC012F0136A146A29
:1013C0000D34123601E313801250156E1550D8A457
:1013D00007D0000E0C6E000E0D6E000E0E6E120089
:1013E00011C012F0136A146A1034123601E313802C
:1013F00012501A6E1A50D8A407D0000E0C6E000EB0
:101400000D6E000E0E6E12001A507B0F15260EC0C8
:101410001AF011501A1A800E1A160D8E108EFF0E29
:101420000F16FF0E1016000E1116000E166E000E8F
:10143000176E000E186E070E196E0CA006D00F5016
:1014400016261050172211501822D8900E320D3245
:101450000C32D8900F3610361136192EEED7090EF1
:10146000196E0CA006D00F501626105017221150DE
:101470001822D8900E320D320C32D8901832173212
:101480001632192EEED716C001F017C002F018C0A0
:1014900003F015C004F01AC005F0C9EC0AF001C051
:1014A0000CF002C00DF003C00EF01200630E00013C
:1014B000666F000E676F5ED0250E6819D8B404D031
:1014C0006851E7EC0BF056D0000E0001656F40D07C
:1014D00066C0D9FF67C0DAFFDECF69F0DDCF6AF002
:1014E000020E6627000E672369516A11D8A41BD02B
:1014F000010E696F100E6A6F16D069C0F6FF6AC0E0
:10150000F7FF000EF86E0F0EF76403D00800F550D9
:1015100005D0F6CFD9FFF7CFDAFFDF50E7EC0BF0BD
:101520000001694B6A2B69C0F6FF6AC0F7FF000E25
:10153000F86E0F0EF76403D00800F55005D0F6CF13
:10154000D9FFF7CFDAFFDF500009D8B413D0D5D7D1
:1015500061C0F6FF62C0F7FF0001614B622BF86AC1
:101560000800F5CF68F06851000AD8B41200730A79
:10157000D8B4AED761C0F6FF62C0F7FF0001614B7F
:10158000622BF86A0800F5CF68F06851D8B41200F1
:1015900093D70450D8B405D0015002100310D8A43A
:1015A0000CD0000E016E000E026E000E036E1200D3
:1015B000042AD890033202320132000E0114066E62
:1015C000000E0214076EFE0E0314086E065007107C
:1015D0000810D8B40CD0ECD7042A010E0126000E56
:1015E0000222000E0322D890033202320132000E92
:1015F0000114066E000E0214076EFF0E0314086E2F
:10160000065007100810D8B406D0E6D70406D890C4
:1016100001360236033602BE03D0020E0460F6D74E
:1016200004A0029ED8900432045003120550D8A49E
:10163000038E01C001F002C002F003C003F01200EB
:101640009AEC0BF0000E0001766F000E756F000E25
:10165000786F010E776F00017951736F746B75515C
:10166000731904E176517419D8B40DD079C075F0AE
:10167000766B0F0E616F100E626F7A0E636F000E45
:10168000646F56EC0AF07A0E0001666F000E676F09
:10169000080E686F100E696FE4EC08F00009D8B40A
:1016A000DAD7000177517811D8B4D5D7150E616F0C
:1016B000100E626F56EC0AF0000E0001786F000EFB
:1016C000C9D7000E0001656F61AF06D0606D611F64
:1016D000D8B0612B010E656F63AF04D0626D631FDC
:1016E000D8B0632B62516311D8B418D0010E646F67
:1016F00004D0D89062376337642B63AFFAD7625156
:10170000605D63516159D8A004D06251605F63513C
:10171000615BD89063336233642FF1D76551D8B4DD
:1017200004D0606D611FD8B0612B60C060F061C0F3
:1017300061F01200700ED31293688A68000E0F01D8
:10174000396FC00E956E000E8C6E000E3B6F880ECA
:10175000D56EE00EF26E190E756E200E726E900E42
:10176000716E000E0001606F090E606501D01200FD
:101770006051010D7A0EF324D96E000EF420DA6E5A
:10178000000EDF6E602BF0D709C001F00AC002F036
:10179000036A8E0E046E000E056EC9EC0AF001C0DD
:1017A00009F002C00AF003C00BF0120000EE79F05D
:1017B0000B0EEE6AE806FDE100EE48F00A0EEE6A56
:1017C000E806FDE152905292000120EF0BF000017B
:0C17D000606F72A2FED760C073FF1200B1
:020000040020DA
:08000000FFFFFFFFFFFFFFFF00
:020000040030CA
:0E000000FF691F3CFFBF85FF0FC00FE00F40E0
:00000001FF
